{
  "contractName": "SolnSquareVerifier",
  "abi": [
    {
      "inputs": [
        {
          "internalType": "address",
          "name": "verifierAddr",
          "type": "address"
        }
      ],
      "payable": false,
      "stateMutability": "nonpayable",
      "type": "constructor"
    },
    {
      "anonymous": false,
      "inputs": [
        {
          "indexed": true,
          "internalType": "address",
          "name": "owner",
          "type": "address"
        },
        {
          "indexed": true,
          "internalType": "address",
          "name": "approved",
          "type": "address"
        },
        {
          "indexed": true,
          "internalType": "uint256",
          "name": "tokenId",
          "type": "uint256"
        }
      ],
      "name": "Approval",
      "type": "event"
    },
    {
      "anonymous": false,
      "inputs": [
        {
          "indexed": true,
          "internalType": "address",
          "name": "owner",
          "type": "address"
        },
        {
          "indexed": true,
          "internalType": "address",
          "name": "operator",
          "type": "address"
        },
        {
          "indexed": false,
          "internalType": "bool",
          "name": "approved",
          "type": "bool"
        }
      ],
      "name": "ApprovalForAll",
      "type": "event"
    },
    {
      "anonymous": false,
      "inputs": [],
      "name": "OwnershipTransferred",
      "type": "event"
    },
    {
      "anonymous": false,
      "inputs": [
        {
          "indexed": false,
          "internalType": "address",
          "name": "account",
          "type": "address"
        }
      ],
      "name": "Paused",
      "type": "event"
    },
    {
      "anonymous": false,
      "inputs": [
        {
          "indexed": false,
          "internalType": "address",
          "name": "solutionAddr",
          "type": "address"
        },
        {
          "indexed": false,
          "internalType": "uint256",
          "name": "tokenID",
          "type": "uint256"
        }
      ],
      "name": "SolutionAdded",
      "type": "event"
    },
    {
      "anonymous": false,
      "inputs": [
        {
          "indexed": true,
          "internalType": "address",
          "name": "from",
          "type": "address"
        },
        {
          "indexed": true,
          "internalType": "address",
          "name": "to",
          "type": "address"
        },
        {
          "indexed": true,
          "internalType": "uint256",
          "name": "tokenId",
          "type": "uint256"
        }
      ],
      "name": "Transfer",
      "type": "event"
    },
    {
      "anonymous": false,
      "inputs": [
        {
          "indexed": false,
          "internalType": "address",
          "name": "account",
          "type": "address"
        }
      ],
      "name": "Unpaused",
      "type": "event"
    },
    {
      "constant": false,
      "inputs": [
        {
          "internalType": "bytes32",
          "name": "_myid",
          "type": "bytes32"
        },
        {
          "internalType": "string",
          "name": "_result",
          "type": "string"
        }
      ],
      "name": "__callback",
      "outputs": [],
      "payable": false,
      "stateMutability": "nonpayable",
      "type": "function"
    },
    {
      "constant": false,
      "inputs": [
        {
          "internalType": "bytes32",
          "name": "_myid",
          "type": "bytes32"
        },
        {
          "internalType": "string",
          "name": "_result",
          "type": "string"
        },
        {
          "internalType": "bytes",
          "name": "_proof",
          "type": "bytes"
        }
      ],
      "name": "__callback",
      "outputs": [],
      "payable": false,
      "stateMutability": "nonpayable",
      "type": "function"
    },
    {
      "constant": false,
      "inputs": [
        {
          "internalType": "address",
          "name": "to",
          "type": "address"
        },
        {
          "internalType": "uint256",
          "name": "tokenId",
          "type": "uint256"
        }
      ],
      "name": "approve",
      "outputs": [],
      "payable": false,
      "stateMutability": "nonpayable",
      "type": "function"
    },
    {
      "constant": true,
      "inputs": [
        {
          "internalType": "address",
          "name": "owner",
          "type": "address"
        }
      ],
      "name": "balanceOf",
      "outputs": [
        {
          "internalType": "uint256",
          "name": "",
          "type": "uint256"
        }
      ],
      "payable": false,
      "stateMutability": "view",
      "type": "function"
    },
    {
      "constant": false,
      "inputs": [
        {
          "internalType": "bool",
          "name": "pause",
          "type": "bool"
        }
      ],
      "name": "changePause",
      "outputs": [],
      "payable": false,
      "stateMutability": "nonpayable",
      "type": "function"
    },
    {
      "constant": true,
      "inputs": [
        {
          "internalType": "uint256",
          "name": "tokenId",
          "type": "uint256"
        }
      ],
      "name": "getApproved",
      "outputs": [
        {
          "internalType": "address",
          "name": "",
          "type": "address"
        }
      ],
      "payable": false,
      "stateMutability": "view",
      "type": "function"
    },
    {
      "constant": true,
      "inputs": [],
      "name": "getBaseTokenURI",
      "outputs": [
        {
          "internalType": "string",
          "name": "",
          "type": "string"
        }
      ],
      "payable": false,
      "stateMutability": "view",
      "type": "function"
    },
    {
      "constant": true,
      "inputs": [],
      "name": "getName",
      "outputs": [
        {
          "internalType": "string",
          "name": "",
          "type": "string"
        }
      ],
      "payable": false,
      "stateMutability": "view",
      "type": "function"
    },
    {
      "constant": true,
      "inputs": [],
      "name": "getOwner",
      "outputs": [
        {
          "internalType": "address",
          "name": "",
          "type": "address"
        }
      ],
      "payable": false,
      "stateMutability": "view",
      "type": "function"
    },
    {
      "constant": true,
      "inputs": [],
      "name": "getSymbol",
      "outputs": [
        {
          "internalType": "string",
          "name": "",
          "type": "string"
        }
      ],
      "payable": false,
      "stateMutability": "view",
      "type": "function"
    },
    {
      "constant": true,
      "inputs": [
        {
          "internalType": "address",
          "name": "owner",
          "type": "address"
        },
        {
          "internalType": "address",
          "name": "operator",
          "type": "address"
        }
      ],
      "name": "isApprovedForAll",
      "outputs": [
        {
          "internalType": "bool",
          "name": "",
          "type": "bool"
        }
      ],
      "payable": false,
      "stateMutability": "view",
      "type": "function"
    },
    {
      "constant": false,
      "inputs": [
        {
          "internalType": "address",
          "name": "to",
          "type": "address"
        },
        {
          "internalType": "uint256",
          "name": "tokenId",
          "type": "uint256"
        }
      ],
      "name": "mint",
      "outputs": [
        {
          "internalType": "bool",
          "name": "",
          "type": "bool"
        }
      ],
      "payable": false,
      "stateMutability": "nonpayable",
      "type": "function"
    },
    {
      "constant": true,
      "inputs": [
        {
          "internalType": "uint256",
          "name": "tokenId",
          "type": "uint256"
        }
      ],
      "name": "ownerOf",
      "outputs": [
        {
          "internalType": "address",
          "name": "",
          "type": "address"
        }
      ],
      "payable": false,
      "stateMutability": "view",
      "type": "function"
    },
    {
      "constant": false,
      "inputs": [
        {
          "internalType": "address",
          "name": "from",
          "type": "address"
        },
        {
          "internalType": "address",
          "name": "to",
          "type": "address"
        },
        {
          "internalType": "uint256",
          "name": "tokenId",
          "type": "uint256"
        }
      ],
      "name": "safeTransferFrom",
      "outputs": [],
      "payable": false,
      "stateMutability": "nonpayable",
      "type": "function"
    },
    {
      "constant": false,
      "inputs": [
        {
          "internalType": "address",
          "name": "from",
          "type": "address"
        },
        {
          "internalType": "address",
          "name": "to",
          "type": "address"
        },
        {
          "internalType": "uint256",
          "name": "tokenId",
          "type": "uint256"
        },
        {
          "internalType": "bytes",
          "name": "_data",
          "type": "bytes"
        }
      ],
      "name": "safeTransferFrom",
      "outputs": [],
      "payable": false,
      "stateMutability": "nonpayable",
      "type": "function"
    },
    {
      "constant": false,
      "inputs": [
        {
          "internalType": "address",
          "name": "to",
          "type": "address"
        },
        {
          "internalType": "bool",
          "name": "approved",
          "type": "bool"
        }
      ],
      "name": "setApprovalForAll",
      "outputs": [],
      "payable": false,
      "stateMutability": "nonpayable",
      "type": "function"
    },
    {
      "constant": true,
      "inputs": [],
      "name": "squareVerifier",
      "outputs": [
        {
          "internalType": "contract Verifier",
          "name": "",
          "type": "address"
        }
      ],
      "payable": false,
      "stateMutability": "view",
      "type": "function"
    },
    {
      "constant": true,
      "inputs": [
        {
          "internalType": "bytes4",
          "name": "interfaceId",
          "type": "bytes4"
        }
      ],
      "name": "supportsInterface",
      "outputs": [
        {
          "internalType": "bool",
          "name": "",
          "type": "bool"
        }
      ],
      "payable": false,
      "stateMutability": "view",
      "type": "function"
    },
    {
      "constant": true,
      "inputs": [
        {
          "internalType": "uint256",
          "name": "index",
          "type": "uint256"
        }
      ],
      "name": "tokenByIndex",
      "outputs": [
        {
          "internalType": "uint256",
          "name": "",
          "type": "uint256"
        }
      ],
      "payable": false,
      "stateMutability": "view",
      "type": "function"
    },
    {
      "constant": true,
      "inputs": [
        {
          "internalType": "address",
          "name": "owner",
          "type": "address"
        },
        {
          "internalType": "uint256",
          "name": "index",
          "type": "uint256"
        }
      ],
      "name": "tokenOfOwnerByIndex",
      "outputs": [
        {
          "internalType": "uint256",
          "name": "",
          "type": "uint256"
        }
      ],
      "payable": false,
      "stateMutability": "view",
      "type": "function"
    },
    {
      "constant": true,
      "inputs": [
        {
          "internalType": "uint256",
          "name": "tokenId",
          "type": "uint256"
        }
      ],
      "name": "tokenURI",
      "outputs": [
        {
          "internalType": "string",
          "name": "",
          "type": "string"
        }
      ],
      "payable": false,
      "stateMutability": "view",
      "type": "function"
    },
    {
      "constant": true,
      "inputs": [],
      "name": "totalSupply",
      "outputs": [
        {
          "internalType": "uint256",
          "name": "",
          "type": "uint256"
        }
      ],
      "payable": false,
      "stateMutability": "view",
      "type": "function"
    },
    {
      "constant": false,
      "inputs": [
        {
          "internalType": "address",
          "name": "from",
          "type": "address"
        },
        {
          "internalType": "address",
          "name": "to",
          "type": "address"
        },
        {
          "internalType": "uint256",
          "name": "tokenId",
          "type": "uint256"
        }
      ],
      "name": "transferFrom",
      "outputs": [],
      "payable": false,
      "stateMutability": "nonpayable",
      "type": "function"
    },
    {
      "constant": false,
      "inputs": [
        {
          "internalType": "address",
          "name": "newOwner",
          "type": "address"
        }
      ],
      "name": "transferOwnership",
      "outputs": [],
      "payable": false,
      "stateMutability": "nonpayable",
      "type": "function"
    },
    {
      "constant": false,
      "inputs": [
        {
          "internalType": "address",
          "name": "to",
          "type": "address"
        },
        {
          "internalType": "uint256",
          "name": "tokenId",
          "type": "uint256"
        },
        {
          "internalType": "uint256[2]",
          "name": "a",
          "type": "uint256[2]"
        },
        {
          "internalType": "uint256[2][2]",
          "name": "b",
          "type": "uint256[2][2]"
        },
        {
          "internalType": "uint256[2]",
          "name": "c",
          "type": "uint256[2]"
        },
        {
          "internalType": "uint256[2]",
          "name": "input",
          "type": "uint256[2]"
        }
      ],
      "name": "mintToken",
      "outputs": [
        {
          "internalType": "bool",
          "name": "",
          "type": "bool"
        }
      ],
      "payable": false,
      "stateMutability": "nonpayable",
      "type": "function"
    }
  ],
  "bytecode": "0x60806040523480156200001157600080fd5b50604051620039c1380380620039c1833981810160405260208110156200003757600080fd5b81019080805190602001909291905050506040518060400160405280600681526020017f4d7950726f7000000000000000000000000000000000000000000000000000008152506040518060400160405280600381526020017f6d707000000000000000000000000000000000000000000000000000000000008152506040518060600160405280603f815260200162003982603f9139336000806101000a81548173ffffffffffffffffffffffffffffffffffffffff021916908373ffffffffffffffffffffffffffffffffffffffff1602179055507fba53939aca110ee6f0e959dce550040ab7781e5bda12e0aa872bd63ed9eff89360405160405180910390a160008060146101000a81548160ff0219169083151502179055507f5db9ee0a495bf2e6ff9c91a7834c1ba4fdd244a5e8aa4e537bd38aeae4b073aa33604051808273ffffffffffffffffffffffffffffffffffffffff1673ffffffffffffffffffffffffffffffffffffffff16815260200191505060405180910390a1620001cf6301ffc9a760e01b620002ad60201b60201c565b620001e76380ac58cd60e01b620002ad60201b60201c565b620001ff63780e9d6360e01b620002ad60201b60201c565b82600f9080519060200190620002179291906200034d565b508160109080519060200190620002309291906200034d565b508060119080519060200190620002499291906200034d565b5062000262635b5e139f60e01b620002ad60201b60201c565b50505080601560006101000a81548173ffffffffffffffffffffffffffffffffffffffff021916908373ffffffffffffffffffffffffffffffffffffffff16021790555050620003fc565b63ffffffff60e01b817bffffffffffffffffffffffffffffffffffffffffffffffffffffffff19161415620002e157600080fd5b6001806000837bffffffffffffffffffffffffffffffffffffffffffffffffffffffff19167bffffffffffffffffffffffffffffffffffffffffffffffffffffffff1916815260200190815260200160002060006101000a81548160ff02191690831515021790555050565b828054600181600116156101000203166002900490600052602060002090601f016020900481019282601f106200039057805160ff1916838001178555620003c1565b82800160010185558215620003c1579182015b82811115620003c0578251825591602001919060010190620003a3565b5b509050620003d09190620003d4565b5090565b620003f991905b80821115620003f5576000816000905550600101620003db565b5090565b90565b613576806200040c6000396000f3fe608060405234801561001057600080fd5b50600436106101735760003560e01c80634c1b1c93116100de578063a22cb46511610097578063c87b56dd11610071578063c87b56dd14610b26578063ccd5835a14610bcd578063e985e9c514610d70578063f2fde38b14610dec57610173565b8063a22cb4651461094e578063b88d4fde1461099e578063bdc32be014610aa357610173565b80634c1b1c93146107825780634f6ccce7146107cc5780635d4fead31461080e5780636352211e1461083e57806370a08231146108ac578063893d20e81461090457610173565b806323b872dd1161013057806323b872dd146103bd57806327dc297e1461042b5780632f745c59146104f057806338bbfa501461055257806340c10f19146106ae57806342842e0e1461071457610173565b806301ffc9a714610178578063081812fc146101dd578063095ea7b31461024b578063150704011461029957806317d7de7c1461031c57806318160ddd1461039f575b600080fd5b6101c36004803603602081101561018e57600080fd5b8101908080357bffffffffffffffffffffffffffffffffffffffffffffffffffffffff19169060200190929190505050610e30565b604051808215151515815260200191505060405180910390f35b610209600480360360208110156101f357600080fd5b8101908080359060200190929190505050610e98565b604051808273ffffffffffffffffffffffffffffffffffffffff1673ffffffffffffffffffffffffffffffffffffffff16815260200191505060405180910390f35b6102976004803603604081101561026157600080fd5b81019080803573ffffffffffffffffffffffffffffffffffffffff16906020019092919080359060200190929190505050610ed5565b005b6102a1611142565b6040518080602001828103825283818151815260200191508051906020019080838360005b838110156102e15780820151818401526020810190506102c6565b50505050905090810190601f16801561030e5780820380516001836020036101000a031916815260200191505b509250505060405180910390f35b6103246111e4565b6040518080602001828103825283818151815260200191508051906020019080838360005b83811015610364578082015181840152602081019050610349565b50505050905090810190601f1680156103915780820380516001836020036101000a031916815260200191505b509250505060405180910390f35b6103a7611286565b6040518082815260200191505060405180910390f35b610429600480360360608110156103d357600080fd5b81019080803573ffffffffffffffffffffffffffffffffffffffff169060200190929190803573ffffffffffffffffffffffffffffffffffffffff16906020019092919080359060200190929190505050611293565b005b6104ee6004803603604081101561044157600080fd5b81019080803590602001909291908035906020019064010000000081111561046857600080fd5b82018360208201111561047a57600080fd5b8035906020019184600183028401116401000000008311171561049c57600080fd5b91908080601f016020809104026020016040519081016040528093929190818152602001838380828437600081840152601f19601f8201169050808301925050505050505091929192905050506112b6565b005b61053c6004803603604081101561050657600080fd5b81019080803573ffffffffffffffffffffffffffffffffffffffff169060200190929190803590602001909291905050506112f9565b6040518082815260200191505060405180910390f35b6106ac6004803603606081101561056857600080fd5b81019080803590602001909291908035906020019064010000000081111561058f57600080fd5b8201836020820111156105a157600080fd5b803590602001918460018302840111640100000000831117156105c357600080fd5b91908080601f016020809104026020016040519081016040528093929190818152602001838380828437600081840152601f19601f8201169050808301925050505050505091929192908035906020019064010000000081111561062657600080fd5b82018360208201111561063857600080fd5b8035906020019184600183028401116401000000008311171561065a57600080fd5b91908080601f016020809104026020016040519081016040528093929190818152602001838380828437600081840152601f19601f82011690508083019250505050505050919291929050505061136c565b005b6106fa600480360360408110156106c457600080fd5b81019080803573ffffffffffffffffffffffffffffffffffffffff16906020019092919080359060200190929190505050611371565b604051808215151515815260200191505060405180910390f35b6107806004803603606081101561072a57600080fd5b81019080803573ffffffffffffffffffffffffffffffffffffffff169060200190929190803573ffffffffffffffffffffffffffffffffffffffff16906020019092919080359060200190929190505050611452565b005b61078a611472565b604051808273ffffffffffffffffffffffffffffffffffffffff1673ffffffffffffffffffffffffffffffffffffffff16815260200191505060405180910390f35b6107f8600480360360208110156107e257600080fd5b8101908080359060200190929190505050611498565b6040518082815260200191505060405180910390f35b61083c6004803603602081101561082457600080fd5b810190808035151590602001909291905050506114cc565b005b61086a6004803603602081101561085457600080fd5b8101908080359060200190929190505050611706565b604051808273ffffffffffffffffffffffffffffffffffffffff1673ffffffffffffffffffffffffffffffffffffffff16815260200191505060405180910390f35b6108ee600480360360208110156108c257600080fd5b81019080803573ffffffffffffffffffffffffffffffffffffffff169060200190929190505050611743565b6040518082815260200191505060405180910390f35b61090c611793565b604051808273ffffffffffffffffffffffffffffffffffffffff1673ffffffffffffffffffffffffffffffffffffffff16815260200191505060405180910390f35b61099c6004803603604081101561096457600080fd5b81019080803573ffffffffffffffffffffffffffffffffffffffff1690602001909291908035151590602001909291905050506117bc565b005b610aa1600480360360808110156109b457600080fd5b81019080803573ffffffffffffffffffffffffffffffffffffffff169060200190929190803573ffffffffffffffffffffffffffffffffffffffff1690602001909291908035906020019092919080359060200190640100000000811115610a1b57600080fd5b820183602082011115610a2d57600080fd5b80359060200191846001830284011164010000000083111715610a4f57600080fd5b91908080601f016020809104026020016040519081016040528093929190818152602001838380828437600081840152601f19601f8201169050808301925050505050505091929192905050506118f6565b005b610aab61191c565b6040518080602001828103825283818151815260200191508051906020019080838360005b83811015610aeb578082015181840152602081019050610ad0565b50505050905090810190601f168015610b185780820380516001836020036101000a031916815260200191505b509250505060405180910390f35b610b5260048036036020811015610b3c57600080fd5b81019080803590602001909291905050506119be565b6040518080602001828103825283818151815260200191508051906020019080838360005b83811015610b92578082015181840152602081019050610b77565b50505050905090810190601f168015610bbf5780820380516001836020036101000a031916815260200191505b509250505060405180910390f35b610d566004803603610180811015610be457600080fd5b81019080803573ffffffffffffffffffffffffffffffffffffffff1690602001909291908035906020019092919080604001906002806020026040519081016040528092919082600260200280828437600081840152601f19601f82011690508083019250505050505091929192908060800190600280602002604051908101604052809291906000905b82821015610cc3578382604002016002806020026040519081016040528092919082600260200280828437600081840152601f19601f82011690508083019250505050505081526020019060010190610c6f565b50505050919291929080604001906002806020026040519081016040528092919082600260200280828437600081840152601f19601f820116905080830192505050505050919291929080604001906002806020026040519081016040528092919082600260200280828437600081840152601f19601f8201169050808301925050505050509192919290505050611a85565b604051808215151515815260200191505060405180910390f35b610dd260048036036040811015610d8657600080fd5b81019080803573ffffffffffffffffffffffffffffffffffffffff169060200190929190803573ffffffffffffffffffffffffffffffffffffffff169060200190929190505050611e3d565b604051808215151515815260200191505060405180910390f35b610e2e60048036036020811015610e0257600080fd5b81019080803573ffffffffffffffffffffffffffffffffffffffff169060200190929190505050611ed1565b005b600060016000837bffffffffffffffffffffffffffffffffffffffffffffffffffffffff19167bffffffffffffffffffffffffffffffffffffffffffffffffffffffff1916815260200190815260200160002060009054906101000a900460ff169050919050565b60006003600083815260200190815260200160002060009054906101000a900473ffffffffffffffffffffffffffffffffffffffff169050919050565b8173ffffffffffffffffffffffffffffffffffffffff166002600083815260200190815260200160002060009054906101000a900473ffffffffffffffffffffffffffffffffffffffff1673ffffffffffffffffffffffffffffffffffffffff161415610faa576040517f08c379a000000000000000000000000000000000000000000000000000000000815260040180806020018281038252601e8152602001807f546f6b656e20616c7265616479206f776e65642062792061646472657373000081525060200191505060405180910390fd5b6002600082815260200190815260200160002060009054906101000a900473ffffffffffffffffffffffffffffffffffffffff1673ffffffffffffffffffffffffffffffffffffffff163373ffffffffffffffffffffffffffffffffffffffff161480611050575061104f6002600083815260200190815260200160002060009054906101000a900473ffffffffffffffffffffffffffffffffffffffff1633611e3d565b5b6110a5576040517f08c379a00000000000000000000000000000000000000000000000000000000081526004018080602001828103825260258152602001806134f06025913960400191505060405180910390fd5b6110b08260016117bc565b808273ffffffffffffffffffffffffffffffffffffffff166002600084815260200190815260200160002060009054906101000a900473ffffffffffffffffffffffffffffffffffffffff1673ffffffffffffffffffffffffffffffffffffffff167f8c5be1e5ebec7d5bd14f71427d1e84f3dd0314c0f7b2291e5b200ac8c7c3b92560405160405180910390a45050565b606060108054600181600116156101000203166002900480601f0160208091040260200160405190810160405280929190818152602001828054600181600116156101000203166002900480156111da5780601f106111af576101008083540402835291602001916111da565b820191906000526020600020905b8154815290600101906020018083116111bd57829003601f168201915b5050505050905090565b6060600f8054600181600116156101000203166002900480601f01602080910402602001604051908101604052809291908181526020018280546001816001161561010002031660029004801561127c5780601f106112515761010080835404028352916020019161127c565b820191906000526020600020905b81548152906001019060200180831161125f57829003601f168201915b5050505050905090565b6000600880549050905090565b61129d3382612094565b6112a657600080fd5b6112b1838383612129565b505050565b6112f5828260006040519080825280601f01601f1916602001820160405280156112ef5781602001600182028038833980820191505090505b5061136c565b5050565b600061130483611743565b821061130f57600080fd5b600660008473ffffffffffffffffffffffffffffffffffffffff1673ffffffffffffffffffffffffffffffffffffffff168152602001908152602001600020828154811061135957fe5b9060005260206000200154905092915050565b505050565b60008060009054906101000a900473ffffffffffffffffffffffffffffffffffffffff1673ffffffffffffffffffffffffffffffffffffffff163373ffffffffffffffffffffffffffffffffffffffff1614611435576040517f08c379a000000000000000000000000000000000000000000000000000000000815260040180806020018281038252601b8152602001807f43616c6c6572206163636f756e74206973206e6f74206f776e6572000000000081525060200191505060405180910390fd5b61143f838361214d565b6114488261216e565b6001905092915050565b61146d838383604051806020016040528060008152506118f6565b505050565b601560009054906101000a900473ffffffffffffffffffffffffffffffffffffffff1681565b60006114a2611286565b82106114ad57600080fd5b600882815481106114ba57fe5b90600052602060002001549050919050565b6000809054906101000a900473ffffffffffffffffffffffffffffffffffffffff1673ffffffffffffffffffffffffffffffffffffffff163373ffffffffffffffffffffffffffffffffffffffff161461158e576040517f08c379a000000000000000000000000000000000000000000000000000000000815260040180806020018281038252601b8152602001807f43616c6c6572206163636f756e74206973206e6f74206f776e6572000000000081525060200191505060405180910390fd5b600060149054906101000a900460ff1615158115151415611617576040517f08c379a000000000000000000000000000000000000000000000000000000000815260040180806020018281038252601d8152602001807f436f6e7472616374616c726561647920696e207468617420737461746500000081525060200191505060405180910390fd5b80600060146101000a81548160ff021916908315150217905550801561169f577f62e78cea01bee320cd4e420270b5ea74000d11b0c9f74754ebdbfc544b05a25833604051808273ffffffffffffffffffffffffffffffffffffffff1673ffffffffffffffffffffffffffffffffffffffff16815260200191505060405180910390a1611703565b7f5db9ee0a495bf2e6ff9c91a7834c1ba4fdd244a5e8aa4e537bd38aeae4b073aa33604051808273ffffffffffffffffffffffffffffffffffffffff1673ffffffffffffffffffffffffffffffffffffffff16815260200191505060405180910390a15b50565b60006002600083815260200190815260200160002060009054906101000a900473ffffffffffffffffffffffffffffffffffffffff169050919050565b600061178c600460008473ffffffffffffffffffffffffffffffffffffffff1673ffffffffffffffffffffffffffffffffffffffff1681526020019081526020016000206122bf565b9050919050565b60008060009054906101000a900473ffffffffffffffffffffffffffffffffffffffff16905090565b3373ffffffffffffffffffffffffffffffffffffffff168273ffffffffffffffffffffffffffffffffffffffff1614156117f557600080fd5b80600560003373ffffffffffffffffffffffffffffffffffffffff1673ffffffffffffffffffffffffffffffffffffffff16815260200190815260200160002060008473ffffffffffffffffffffffffffffffffffffffff1673ffffffffffffffffffffffffffffffffffffffff16815260200190815260200160002060006101000a81548160ff0219169083151502179055508173ffffffffffffffffffffffffffffffffffffffff163373ffffffffffffffffffffffffffffffffffffffff167f17307eab39ab6107e8899845ad3d59bd9653f200f220920489ca2b5937696c3183604051808215151515815260200191505060405180910390a35050565b611901848484611293565b61190d848484846122cd565b61191657600080fd5b50505050565b606060118054600181600116156101000203166002900480601f0160208091040260200160405190810160405280929190818152602001828054600181600116156101000203166002900480156119b45780601f10611989576101008083540402835291602001916119b4565b820191906000526020600020905b81548152906001019060200180831161199757829003601f168201915b5050505050905090565b60606119c9826124b6565b6119d257600080fd5b601260008381526020019081526020016000208054600181600116156101000203166002900480601f016020809104026020016040519081016040528092919081815260200182805460018160011615610100020316600290048015611a795780601f10611a4e57610100808354040283529160200191611a79565b820191906000526020600020905b815481529060010190602001808311611a5c57829003601f168201915b50505050509050919050565b6000601560009054906101000a900473ffffffffffffffffffffffffffffffffffffffff1673ffffffffffffffffffffffffffffffffffffffff1663621e9ec0868686866040518563ffffffff1660e01b81526004018085600260200280838360005b83811015611b03578082015181840152602081019050611ae8565b505050509050018460026000925b81841015611b575782846020020151600260200280838360005b83811015611b46578082015181840152602081019050611b2b565b505050509050019260010192611b11565b9250505083600260200280838360005b83811015611b82578082015181840152602081019050611b67565b5050505090500182600260200280838360005b83811015611bb0578082015181840152602081019050611b95565b5050505090500194505050505060206040518083038186803b158015611bd557600080fd5b505afa158015611be9573d6000803e3d6000fd5b505050506040513d6020811015611bff57600080fd5b8101908080519060200190929190505050611c82576040517f08c379a00000000000000000000000000000000000000000000000000000000081526004018080602001828103825260158152602001807f536f6c7574696f6e206e6f74207665726966696564000000000000000000000081525060200191505060405180910390fd5b6000858585856040516020018085600260200280838360005b83811015611cb6578082015181840152602081019050611c9b565b505050509050018460026000925b81841015611d0a5782846020020151600260200280838360005b83811015611cf9578082015181840152602081019050611cde565b505050509050019260010192611cc4565b9250505083600260200280838360005b83811015611d35578082015181840152602081019050611d1a565b5050505090500182600260200280838360005b83811015611d63578082015181840152602081019050611d48565b505050509050019450505050506040516020818303038152906040528051906020012090506014600082815260200190815260200160002060009054906101000a900460ff1615611e1c576040517f08c379a00000000000000000000000000000000000000000000000000000000081526004018080602001828103825260168152602001807f536f6c7574696f6e20616c72656164792061646465640000000000000000000081525060200191505060405180910390fd5b611e268888612528565b611e308888611371565b9150509695505050505050565b6000600560008473ffffffffffffffffffffffffffffffffffffffff1673ffffffffffffffffffffffffffffffffffffffff16815260200190815260200160002060008373ffffffffffffffffffffffffffffffffffffffff1673ffffffffffffffffffffffffffffffffffffffff16815260200190815260200160002060009054906101000a900460ff16905092915050565b6000809054906101000a900473ffffffffffffffffffffffffffffffffffffffff1673ffffffffffffffffffffffffffffffffffffffff163373ffffffffffffffffffffffffffffffffffffffff1614611f93576040517f08c379a000000000000000000000000000000000000000000000000000000000815260040180806020018281038252601b8152602001807f43616c6c6572206163636f756e74206973206e6f74206f776e6572000000000081525060200191505060405180910390fd5b611fb28173ffffffffffffffffffffffffffffffffffffffff16612655565b15612025576040517f08c379a00000000000000000000000000000000000000000000000000000000081526004018080602001828103825260118152602001807f496e76616c6964206e6577206f776e657200000000000000000000000000000081525060200191505060405180910390fd5b7fba53939aca110ee6f0e959dce550040ab7781e5bda12e0aa872bd63ed9eff89360405160405180910390a1806000806101000a81548173ffffffffffffffffffffffffffffffffffffffff021916908373ffffffffffffffffffffffffffffffffffffffff16021790555050565b6000806120a083611706565b90508073ffffffffffffffffffffffffffffffffffffffff168473ffffffffffffffffffffffffffffffffffffffff16148061210f57508373ffffffffffffffffffffffffffffffffffffffff166120f784610e98565b73ffffffffffffffffffffffffffffffffffffffff16145b80612120575061211f8185611e3d565b5b91505092915050565b6121348383836126a0565b61213e8382612932565b6121488282612ad0565b505050565b6121578282612b97565b6121618282612ad0565b61216a81612d9e565b5050565b612177816124b6565b6121e9576040517f08c379a00000000000000000000000000000000000000000000000000000000081526004018080602001828103825260148152602001807f546f6b656e20646f6573206e6f7420657869737400000000000000000000000081525060200191505060405180910390fd5b61229560118054600181600116156101000203166002900480601f0160208091040260200160405190810160405280929190818152602001828054600181600116156101000203166002900480156122825780601f1061225757610100808354040283529160200191612282565b820191906000526020600020905b81548152906001019060200180831161226557829003601f168201915b505050505061229083612dea565b612f17565b6012600083815260200190815260200160002090805190602001906122bb92919061341e565b5050565b600081600001549050919050565b60006122ee8473ffffffffffffffffffffffffffffffffffffffff16612655565b6122fb57600190506124ae565b60008473ffffffffffffffffffffffffffffffffffffffff1663150b7a02338887876040518563ffffffff1660e01b8152600401808573ffffffffffffffffffffffffffffffffffffffff1673ffffffffffffffffffffffffffffffffffffffff1681526020018473ffffffffffffffffffffffffffffffffffffffff1673ffffffffffffffffffffffffffffffffffffffff16815260200183815260200180602001828103825283818151815260200191508051906020019080838360005b838110156123d65780820151818401526020810190506123bb565b50505050905090810190601f1680156124035780820380516001836020036101000a031916815260200191505b5095505050505050602060405180830381600087803b15801561242557600080fd5b505af1158015612439573d6000803e3d6000fd5b505050506040513d602081101561244f57600080fd5b8101908080519060200190929190505050905063150b7a0260e01b7bffffffffffffffffffffffffffffffffffffffffffffffffffffffff1916817bffffffffffffffffffffffffffffffffffffffffffffffffffffffff1916149150505b949350505050565b6000806002600084815260200190815260200160002060009054906101000a900473ffffffffffffffffffffffffffffffffffffffff169050600073ffffffffffffffffffffffffffffffffffffffff168173ffffffffffffffffffffffffffffffffffffffff161415915050919050565b60405180604001604052808373ffffffffffffffffffffffffffffffffffffffff16815260200182815250601360008473ffffffffffffffffffffffffffffffffffffffff1673ffffffffffffffffffffffffffffffffffffffff16815260200190815260200160002060008201518160000160006101000a81548173ffffffffffffffffffffffffffffffffffffffff021916908373ffffffffffffffffffffffffffffffffffffffff160217905550602082015181600101559050507f3a01cc868bdb36c1d9b8a262a8ad25064b23ac175b3f8e4453f1daf8ff6bac0d8282604051808373ffffffffffffffffffffffffffffffffffffffff1673ffffffffffffffffffffffffffffffffffffffff1681526020018281526020019250505060405180910390a15050565b60008060007fc5d2460186f7233c927e7db2dcc703c0e500b653ca82273b7bfad8045d85a47060001b9050833f915080821415801561269757506000801b8214155b92505050919050565b8273ffffffffffffffffffffffffffffffffffffffff166002600083815260200190815260200160002060009054906101000a900473ffffffffffffffffffffffffffffffffffffffff1673ffffffffffffffffffffffffffffffffffffffff1614612774576040517f08c379a00000000000000000000000000000000000000000000000000000000081526004018080602001828103825260188152602001807f41646472657373206973206e6f7420746865206f776e6572000000000000000081525060200191505060405180910390fd5b6127938273ffffffffffffffffffffffffffffffffffffffff16612655565b156127e9576040517f08c379a000000000000000000000000000000000000000000000000000000000815260040180806020018281038252602d815260200180613515602d913960400191505060405180910390fd5b6127f281612f5b565b612839600460008573ffffffffffffffffffffffffffffffffffffffff1673ffffffffffffffffffffffffffffffffffffffff168152602001908152602001600020613019565b612880600460008473ffffffffffffffffffffffffffffffffffffffff1673ffffffffffffffffffffffffffffffffffffffff16815260200190815260200160002061303c565b816002600083815260200190815260200160002060006101000a81548173ffffffffffffffffffffffffffffffffffffffff021916908373ffffffffffffffffffffffffffffffffffffffff160217905550808273ffffffffffffffffffffffffffffffffffffffff168473ffffffffffffffffffffffffffffffffffffffff167fddf252ad1be2c89b69c2b068fc378daa952ba7f163c4a11628f55a4df523b3ef60405160405180910390a4505050565b600061298a6001600660008673ffffffffffffffffffffffffffffffffffffffff1673ffffffffffffffffffffffffffffffffffffffff1681526020019081526020016000208054905061305290919063ffffffff16565b9050600060076000848152602001908152602001600020549050818114612a77576000600660008673ffffffffffffffffffffffffffffffffffffffff1673ffffffffffffffffffffffffffffffffffffffff16815260200190815260200160002083815481106129f757fe5b9060005260206000200154905080600660008773ffffffffffffffffffffffffffffffffffffffff1673ffffffffffffffffffffffffffffffffffffffff1681526020019081526020016000208381548110612a4f57fe5b9060005260206000200181905550816007600083815260200190815260200160002081905550505b600660008573ffffffffffffffffffffffffffffffffffffffff1673ffffffffffffffffffffffffffffffffffffffff168152602001908152602001600020805480919060019003612ac9919061349e565b5050505050565b600660008373ffffffffffffffffffffffffffffffffffffffff1673ffffffffffffffffffffffffffffffffffffffff168152602001908152602001600020805490506007600083815260200190815260200160002081905550600660008373ffffffffffffffffffffffffffffffffffffffff1673ffffffffffffffffffffffffffffffffffffffff1681526020019081526020016000208190806001815401808255809150509060018203906000526020600020016000909192909190915055505050565b612ba0816124b6565b15612c13576040517f08c379a00000000000000000000000000000000000000000000000000000000081526004018080602001828103825260148152602001807f546f6b656e20616c72656164792065786973747300000000000000000000000081525060200191505060405180910390fd5b612c328273ffffffffffffffffffffffffffffffffffffffff16612655565b15612ca5576040517f08c379a000000000000000000000000000000000000000000000000000000000815260040180806020018281038252600f8152602001807f496e76616c69642061646472657373000000000000000000000000000000000081525060200191505060405180910390fd5b816002600083815260200190815260200160002060006101000a81548173ffffffffffffffffffffffffffffffffffffffff021916908373ffffffffffffffffffffffffffffffffffffffff160217905550612d3e600460008473ffffffffffffffffffffffffffffffffffffffff1673ffffffffffffffffffffffffffffffffffffffff16815260200190815260200160002061303c565b808273ffffffffffffffffffffffffffffffffffffffff16600073ffffffffffffffffffffffffffffffffffffffff167fddf252ad1be2c89b69c2b068fc378daa952ba7f163c4a11628f55a4df523b3ef60405160405180910390a45050565b6008805490506009600083815260200190815260200160002081905550600881908060018154018082558091505090600182039060005260206000200160009091929091909150555050565b60606000821415612e32576040518060400160405280600181526020017f30000000000000000000000000000000000000000000000000000000000000008152509050612f12565b600082905060005b60008214612e5c578080600101915050600a8281612e5457fe5b049150612e3a565b6060816040519080825280601f01601f191660200182016040528015612e915781602001600182028038833980820191505090505b50905060006001830390505b60008614612f0a57600a8681612eaf57fe5b0660300160f81b82828060019003935081518110612ec957fe5b60200101907effffffffffffffffffffffffffffffffffffffffffffffffffffffffffffff1916908160001a905350600a8681612f0257fe5b049550612e9d565b819450505050505b919050565b6060612f53838360405180602001604052806000815250604051806020016040528060008152506040518060200160405280600081525061309c565b905092915050565b600073ffffffffffffffffffffffffffffffffffffffff166003600083815260200190815260200160002060009054906101000a900473ffffffffffffffffffffffffffffffffffffffff1673ffffffffffffffffffffffffffffffffffffffff16146130165760006003600083815260200190815260200160002060006101000a81548173ffffffffffffffffffffffffffffffffffffffff021916908373ffffffffffffffffffffffffffffffffffffffff1602179055505b50565b6130316001826000015461305290919063ffffffff16565b816000018190555050565b6001816000016000828254019250508190555050565b600061309483836040518060400160405280601e81526020017f536166654d6174683a207375627472616374696f6e206f766572666c6f77000081525061335e565b905092915050565b6060808690506060869050606086905060608690506060869050606081518351855187518951010101016040519080825280601f01601f1916602001820160405280156130f85781602001600182028038833980820191505090505b509050606081905060008090506000809050600090505b885181101561317d5788818151811061312457fe5b602001015160f81c60f81b83838060010194508151811061314157fe5b60200101907effffffffffffffffffffffffffffffffffffffffffffffffffffffffffffff1916908160001a905350808060010191505061310f565b600090505b87518110156131f05787818151811061319757fe5b602001015160f81c60f81b8383806001019450815181106131b457fe5b60200101907effffffffffffffffffffffffffffffffffffffffffffffffffffffffffffff1916908160001a9053508080600101915050613182565b600090505b86518110156132635786818151811061320a57fe5b602001015160f81c60f81b83838060010194508151811061322757fe5b60200101907effffffffffffffffffffffffffffffffffffffffffffffffffffffffffffff1916908160001a90535080806001019150506131f5565b600090505b85518110156132d65785818151811061327d57fe5b602001015160f81c60f81b83838060010194508151811061329a57fe5b60200101907effffffffffffffffffffffffffffffffffffffffffffffffffffffffffffff1916908160001a9053508080600101915050613268565b600090505b8451811015613349578481815181106132f057fe5b602001015160f81c60f81b83838060010194508151811061330d57fe5b60200101907effffffffffffffffffffffffffffffffffffffffffffffffffffffffffffff1916908160001a90535080806001019150506132db565b82995050505050505050505095945050505050565b600083831115829061340b576040517f08c379a00000000000000000000000000000000000000000000000000000000081526004018080602001828103825283818151815260200191508051906020019080838360005b838110156133d05780820151818401526020810190506133b5565b50505050905090810190601f1680156133fd5780820380516001836020036101000a031916815260200191505b509250505060405180910390fd5b5060008385039050809150509392505050565b828054600181600116156101000203166002900490600052602060002090601f016020900481019282601f1061345f57805160ff191683800117855561348d565b8280016001018555821561348d579182015b8281111561348c578251825591602001919060010190613471565b5b50905061349a91906134ca565b5090565b8154818355818111156134c5578183600052602060002091820191016134c491906134ca565b5b505050565b6134ec91905b808211156134e85760008160009055506001016134d0565b5090565b9056fe4163636f756e74206973206e6f7420746f6b656e206f776e65726f7220617070726f766572546f6b656e206e6f74206265696e67207472616e73666572656420746f20636f72726563742061646472657373a265627a7a72315820a2e049dcd46801df9016ab8994de4282827776e1801dc5deaa4824b7cd35f42a64736f6c6343000510003268747470733a2f2f73332d75732d776573742d322e616d617a6f6e6177732e636f6d2f756461636974792d626c6f636b636861696e2f63617073746f6e652f",
  "source": "pragma solidity >=0.4.21 <0.6.0;\r\n\r\nimport \"./verifier.sol\";\r\nimport \"./ERC721Mintable.sol\";\r\n\r\n\r\n\r\n// TODO define another contract named SolnSquareVerifier that inherits from your ERC721Mintable class\r\ncontract SolnSquareVerifier is CustomERC721Token{\r\n\r\n    // TODO define a solutions struct that can hold an index & an address\r\n    struct Solution{\r\n        address solutionAddr;\r\n        uint tokenID;\r\n    }\r\n\r\n    // TODO define an array of the above struct\r\n    mapping(address => Solution) solutions; \r\n\r\n    // TODO define a mapping to store unique solutions submitted\r\n    mapping (bytes32 => bool) solutionsAdded;\r\n\r\n    Verifier public squareVerifier;\r\n\r\n    // TODO Create an event to emit when a solution is added\r\n    event SolutionAdded(address solutionAddr, uint tokenID);\r\n\r\n    constructor(address verifierAddr) public{\r\n        squareVerifier = Verifier(verifierAddr);\r\n    }\r\n\r\n    // TODO Create a function to add the solutions to the array and emit the event\r\n    function _addSolution (address addr, uint id) internal {\r\n\r\n        solutions[addr] = Solution({\r\n            solutionAddr:addr,\r\n            tokenID:id\r\n        });\r\n\r\n        emit SolutionAdded(addr,id);\r\n    }\r\n\r\n    // TODO Create a function to mint new NFT only after the solution has been verified\r\n    //  - make sure the solution is unique (has not been used before)\r\n    //  - make sure you handle metadata as well as tokenSuplly\r\n\r\n    function mintToken(\r\n        address to, \r\n        uint tokenId, \r\n        uint[2] memory a, \r\n        uint[2][2] memory b, \r\n        uint[2] memory c,\r\n        uint[2] memory input)\r\n        public returns (bool){\r\n\r\n            require(squareVerifier.verifyTx(a,b,c,input), \"Solution not verified\");\r\n\r\n            bytes32 hash = keccak256(abi.encodePacked(a,b, c, input));\r\n\r\n            require(!solutionsAdded[hash], \"Solution already added\");\r\n\r\n            _addSolution(to, tokenId);\r\n\r\n            return super.mint(to,tokenId);\r\n        }\r\n\r\n}\r\n\r\n\r\n\r\n\r\n\r\n\r\n\r\n\r\n\r\n  \r\n\r\n\r\n\r\n\r\n\r\n\r\n\r\n\r\n\r\n\r\n\r\n\r\n\r\n\r\n\r\n\r\n\r\n\r\n\r\n\r\n\r\n\r\n\r\n\r\n\r\n\r\n",
  "sourcePath": "C:/Users/Martina/Desktop/Udacity/Realstate/Blockchain-Capstone/eth-contracts/contracts/SolnSquareVerifier.sol",
  "compiler": {
    "name": "solc",
    "version": "0.5.16+commit.9c3226ce.Emscripten.clang"
  },
  "schemaVersion": "3.4.1",
  "updatedAt": "2021-06-03T19:49:33.743Z",
  "devdoc": {
    "methods": {
      "isApprovedForAll(address,address)": {
        "details": "Tells whether an operator is approved by a given owner",
        "params": {
          "operator": "operator address which you want to query the approval of",
          "owner": "owner address which you want to query the approval of"
        },
        "return": "bool whether the given operator is approved by the given owner"
      },
      "setApprovalForAll(address,bool)": {
        "details": "Sets or unsets the approval of a given operator An operator is allowed to transfer all tokens of the sender on their behalf",
        "params": {
          "approved": "representing the status of the approval to be set",
          "to": "operator address to set the approval"
        }
      },
      "supportsInterface(bytes4)": {
        "details": "implement supportsInterface(bytes4) using a lookup table"
      },
      "tokenByIndex(uint256)": {
        "details": "Gets the token ID at a given index of all the tokens in this contract Reverts if the index is greater or equal to the total number of tokens",
        "params": {
          "index": "uint256 representing the index to be accessed of the tokens list"
        },
        "return": "uint256 token ID at the given index of the tokens list"
      },
      "tokenOfOwnerByIndex(address,uint256)": {
        "details": "Gets the token ID at a given index of the tokens list of the requested owner",
        "params": {
          "index": "uint256 representing the index to be accessed of the requested tokens list",
          "owner": "address owning the tokens list to be accessed"
        },
        "return": "uint256 token ID at the given index of the tokens list owned by the requested address"
      },
      "totalSupply()": {
        "details": "Gets the total amount of tokens stored by the contract",
        "return": "uint256 representing the total amount of tokens"
      }
    }
  },
  "userdoc": {
    "methods": {}
  }
}